{
  "_format": "hh-sol-artifact-1",
  "contractName": "Cosigneth",
  "sourceName": "contracts/Cosigneth.sol",
  "abi": [
    {
      "inputs": [],
      "stateMutability": "nonpayable",
      "type": "constructor"
    },
    {
      "anonymous": false,
      "inputs": [
        {
          "indexed": true,
          "internalType": "address",
          "name": "owner",
          "type": "address"
        },
        {
          "indexed": true,
          "internalType": "address",
          "name": "approved",
          "type": "address"
        },
        {
          "indexed": true,
          "internalType": "uint256",
          "name": "tokenId",
          "type": "uint256"
        }
      ],
      "name": "Approval",
      "type": "event"
    },
    {
      "anonymous": false,
      "inputs": [
        {
          "indexed": true,
          "internalType": "address",
          "name": "owner",
          "type": "address"
        },
        {
          "indexed": true,
          "internalType": "address",
          "name": "operator",
          "type": "address"
        },
        {
          "indexed": false,
          "internalType": "bool",
          "name": "approved",
          "type": "bool"
        }
      ],
      "name": "ApprovalForAll",
      "type": "event"
    },
    {
      "anonymous": false,
      "inputs": [
        {
          "indexed": true,
          "internalType": "address",
          "name": "previousOwner",
          "type": "address"
        },
        {
          "indexed": true,
          "internalType": "address",
          "name": "newOwner",
          "type": "address"
        }
      ],
      "name": "OwnershipTransferred",
      "type": "event"
    },
    {
      "anonymous": false,
      "inputs": [
        {
          "indexed": false,
          "internalType": "address",
          "name": "account",
          "type": "address"
        }
      ],
      "name": "Paused",
      "type": "event"
    },
    {
      "anonymous": false,
      "inputs": [
        {
          "indexed": true,
          "internalType": "address",
          "name": "from",
          "type": "address"
        },
        {
          "indexed": true,
          "internalType": "address",
          "name": "to",
          "type": "address"
        },
        {
          "indexed": true,
          "internalType": "uint256",
          "name": "tokenId",
          "type": "uint256"
        }
      ],
      "name": "Transfer",
      "type": "event"
    },
    {
      "anonymous": false,
      "inputs": [
        {
          "indexed": false,
          "internalType": "address",
          "name": "account",
          "type": "address"
        }
      ],
      "name": "Unpaused",
      "type": "event"
    },
    {
      "inputs": [
        {
          "internalType": "address",
          "name": "to",
          "type": "address"
        },
        {
          "internalType": "uint256",
          "name": "tokenId",
          "type": "uint256"
        }
      ],
      "name": "approve",
      "outputs": [],
      "stateMutability": "nonpayable",
      "type": "function"
    },
    {
      "inputs": [
        {
          "internalType": "address",
          "name": "owner",
          "type": "address"
        }
      ],
      "name": "balanceOf",
      "outputs": [
        {
          "internalType": "uint256",
          "name": "",
          "type": "uint256"
        }
      ],
      "stateMutability": "view",
      "type": "function"
    },
    {
      "inputs": [
        {
          "internalType": "string",
          "name": "image",
          "type": "string"
        }
      ],
      "name": "get",
      "outputs": [
        {
          "components": [
            {
              "internalType": "address",
              "name": "signer",
              "type": "address"
            },
            {
              "internalType": "string",
              "name": "image",
              "type": "string"
            },
            {
              "internalType": "string",
              "name": "digest",
              "type": "string"
            }
          ],
          "internalType": "struct Cosigneth.Signature[]",
          "name": "",
          "type": "tuple[]"
        }
      ],
      "stateMutability": "view",
      "type": "function"
    },
    {
      "inputs": [
        {
          "internalType": "uint256",
          "name": "tokenId",
          "type": "uint256"
        }
      ],
      "name": "getApproved",
      "outputs": [
        {
          "internalType": "address",
          "name": "",
          "type": "address"
        }
      ],
      "stateMutability": "view",
      "type": "function"
    },
    {
      "inputs": [
        {
          "internalType": "address",
          "name": "owner",
          "type": "address"
        },
        {
          "internalType": "address",
          "name": "operator",
          "type": "address"
        }
      ],
      "name": "isApprovedForAll",
      "outputs": [
        {
          "internalType": "bool",
          "name": "",
          "type": "bool"
        }
      ],
      "stateMutability": "view",
      "type": "function"
    },
    {
      "inputs": [
        {
          "internalType": "string",
          "name": "image",
          "type": "string"
        },
        {
          "internalType": "string",
          "name": "digest",
          "type": "string"
        }
      ],
      "name": "mint",
      "outputs": [],
      "stateMutability": "payable",
      "type": "function"
    },
    {
      "inputs": [],
      "name": "name",
      "outputs": [
        {
          "internalType": "string",
          "name": "",
          "type": "string"
        }
      ],
      "stateMutability": "view",
      "type": "function"
    },
    {
      "inputs": [],
      "name": "owner",
      "outputs": [
        {
          "internalType": "address",
          "name": "",
          "type": "address"
        }
      ],
      "stateMutability": "view",
      "type": "function"
    },
    {
      "inputs": [
        {
          "internalType": "uint256",
          "name": "tokenId",
          "type": "uint256"
        }
      ],
      "name": "ownerOf",
      "outputs": [
        {
          "internalType": "address",
          "name": "",
          "type": "address"
        }
      ],
      "stateMutability": "view",
      "type": "function"
    },
    {
      "inputs": [],
      "name": "paused",
      "outputs": [
        {
          "internalType": "bool",
          "name": "",
          "type": "bool"
        }
      ],
      "stateMutability": "view",
      "type": "function"
    },
    {
      "inputs": [],
      "name": "renounceOwnership",
      "outputs": [],
      "stateMutability": "nonpayable",
      "type": "function"
    },
    {
      "inputs": [
        {
          "internalType": "address",
          "name": "from",
          "type": "address"
        },
        {
          "internalType": "address",
          "name": "to",
          "type": "address"
        },
        {
          "internalType": "uint256",
          "name": "tokenId",
          "type": "uint256"
        }
      ],
      "name": "safeTransferFrom",
      "outputs": [],
      "stateMutability": "nonpayable",
      "type": "function"
    },
    {
      "inputs": [
        {
          "internalType": "address",
          "name": "from",
          "type": "address"
        },
        {
          "internalType": "address",
          "name": "to",
          "type": "address"
        },
        {
          "internalType": "uint256",
          "name": "tokenId",
          "type": "uint256"
        },
        {
          "internalType": "bytes",
          "name": "_data",
          "type": "bytes"
        }
      ],
      "name": "safeTransferFrom",
      "outputs": [],
      "stateMutability": "nonpayable",
      "type": "function"
    },
    {
      "inputs": [
        {
          "internalType": "address",
          "name": "operator",
          "type": "address"
        },
        {
          "internalType": "bool",
          "name": "approved",
          "type": "bool"
        }
      ],
      "name": "setApprovalForAll",
      "outputs": [],
      "stateMutability": "nonpayable",
      "type": "function"
    },
    {
      "inputs": [
        {
          "internalType": "string",
          "name": "",
          "type": "string"
        },
        {
          "internalType": "uint256",
          "name": "",
          "type": "uint256"
        }
      ],
      "name": "signatures",
      "outputs": [
        {
          "internalType": "address",
          "name": "signer",
          "type": "address"
        },
        {
          "internalType": "string",
          "name": "image",
          "type": "string"
        },
        {
          "internalType": "string",
          "name": "digest",
          "type": "string"
        }
      ],
      "stateMutability": "view",
      "type": "function"
    },
    {
      "inputs": [
        {
          "internalType": "bytes4",
          "name": "interfaceId",
          "type": "bytes4"
        }
      ],
      "name": "supportsInterface",
      "outputs": [
        {
          "internalType": "bool",
          "name": "",
          "type": "bool"
        }
      ],
      "stateMutability": "view",
      "type": "function"
    },
    {
      "inputs": [],
      "name": "symbol",
      "outputs": [
        {
          "internalType": "string",
          "name": "",
          "type": "string"
        }
      ],
      "stateMutability": "view",
      "type": "function"
    },
    {
      "inputs": [
        {
          "internalType": "uint256",
          "name": "tokenId",
          "type": "uint256"
        }
      ],
      "name": "tokenURI",
      "outputs": [
        {
          "internalType": "string",
          "name": "",
          "type": "string"
        }
      ],
      "stateMutability": "view",
      "type": "function"
    },
    {
      "inputs": [],
      "name": "totalSupply",
      "outputs": [
        {
          "internalType": "uint256",
          "name": "",
          "type": "uint256"
        }
      ],
      "stateMutability": "view",
      "type": "function"
    },
    {
      "inputs": [
        {
          "internalType": "address",
          "name": "from",
          "type": "address"
        },
        {
          "internalType": "address",
          "name": "to",
          "type": "address"
        },
        {
          "internalType": "uint256",
          "name": "tokenId",
          "type": "uint256"
        }
      ],
      "name": "transferFrom",
      "outputs": [],
      "stateMutability": "nonpayable",
      "type": "function"
    },
    {
      "inputs": [
        {
          "internalType": "address",
          "name": "newOwner",
          "type": "address"
        }
      ],
      "name": "transferOwnership",
      "outputs": [],
      "stateMutability": "nonpayable",
      "type": "function"
    },
    {
      "inputs": [
        {
          "internalType": "string",
          "name": "image",
          "type": "string"
        },
        {
          "internalType": "address",
          "name": "signer",
          "type": "address"
        },
        {
          "internalType": "bytes32",
          "name": "digest",
          "type": "bytes32"
        },
        {
          "internalType": "bytes",
          "name": "signature",
          "type": "bytes"
        }
      ],
      "name": "verify",
      "outputs": [
        {
          "internalType": "bool",
          "name": "",
          "type": "bool"
        }
      ],
      "stateMutability": "view",
      "type": "function"
    },
    {
      "inputs": [],
      "name": "withdraw",
      "outputs": [],
      "stateMutability": "nonpayable",
      "type": "function"
    }
  ],
  "bytecode": "0x60806040523480156200001157600080fd5b506040518060400160405280600981526020017f436f7369676e65746800000000000000000000000000000000000000000000008152506040518060400160405280600481526020017f4353474e00000000000000000000000000000000000000000000000000000000815250816000908051906020019062000096929190620001c9565b508060019080519060200190620000af929190620001c9565b505050620000d2620000c6620000fb60201b60201c565b6200010360201b60201c565b6000600660146101000a81548160ff0219169083151502179055506001600781905550620002de565b600033905090565b6000600660009054906101000a900473ffffffffffffffffffffffffffffffffffffffff16905081600660006101000a81548173ffffffffffffffffffffffffffffffffffffffff021916908373ffffffffffffffffffffffffffffffffffffffff1602179055508173ffffffffffffffffffffffffffffffffffffffff168173ffffffffffffffffffffffffffffffffffffffff167f8be0079c531659141344cd1fd0a4f28419497f9722a3daafe3b4186f6b6457e060405160405180910390a35050565b828054620001d790620002a8565b90600052602060002090601f016020900481019282620001fb576000855562000247565b82601f106200021657805160ff191683800117855562000247565b8280016001018555821562000247579182015b828111156200024657825182559160200191906001019062000229565b5b5090506200025691906200025a565b5090565b5b80821115620002755760008160009055506001016200025b565b5090565b7f4e487b7100000000000000000000000000000000000000000000000000000000600052602260045260246000fd5b60006002820490506001821680620002c157607f821691505b60208210811415620002d857620002d762000279565b5b50919050565b6145a380620002ee6000396000f3fe6080604052600436106101405760003560e01c8063693ec85e116100b657806395d89b411161006f57806395d89b4114610463578063a22cb4651461048e578063b88d4fde146104b7578063c87b56dd146104e0578063e985e9c51461051d578063f2fde38b1461055a57610140565b8063693ec85e1461034c57806370a0823114610389578063715018a6146103c65780637f2c0c6f146103dd5780638aa0fdad1461041c5780638da5cb5b1461043857610140565b806323b872dd1161010857806323b872dd1461023e5780633ccfd60b1461026757806342842e0e1461027e5780635c975abb146102a75780635d502ea2146102d25780636352211e1461030f57610140565b806301ffc9a71461014557806306fdde0314610182578063081812fc146101ad578063095ea7b3146101ea57806318160ddd14610213575b600080fd5b34801561015157600080fd5b5061016c60048036038101906101679190612977565b610583565b60405161017991906129bf565b60405180910390f35b34801561018e57600080fd5b50610197610665565b6040516101a49190612a73565b60405180910390f35b3480156101b957600080fd5b506101d460048036038101906101cf9190612acb565b6106f7565b6040516101e19190612b39565b60405180910390f35b3480156101f657600080fd5b50610211600480360381019061020c9190612b80565b61077c565b005b34801561021f57600080fd5b50610228610894565b6040516102359190612bcf565b60405180910390f35b34801561024a57600080fd5b5061026560048036038101906102609190612bea565b6108a5565b005b34801561027357600080fd5b5061027c610905565b005b34801561028a57600080fd5b506102a560048036038101906102a09190612bea565b610a13565b005b3480156102b357600080fd5b506102bc610a33565b6040516102c991906129bf565b60405180910390f35b3480156102de57600080fd5b506102f960048036038101906102f49190612e49565b610a4a565b60405161030691906129bf565b60405180910390f35b34801561031b57600080fd5b5061033660048036038101906103319190612acb565b610cd1565b6040516103439190612b39565b60405180910390f35b34801561035857600080fd5b50610373600480360381019061036e9190612ee8565b610d83565b60405161038091906130a3565b60405180910390f35b34801561039557600080fd5b506103b060048036038101906103ab91906130c5565b610f7a565b6040516103bd9190612bcf565b60405180910390f35b3480156103d257600080fd5b506103db611032565b005b3480156103e957600080fd5b5061040460048036038101906103ff91906130f2565b6110ba565b6040516104139392919061314e565b60405180910390f35b61043660048036038101906104319190613193565b611247565b005b34801561044457600080fd5b5061044d611407565b60405161045a9190612b39565b60405180910390f35b34801561046f57600080fd5b50610478611431565b6040516104859190612a73565b60405180910390f35b34801561049a57600080fd5b506104b560048036038101906104b09190613237565b6114c3565b005b3480156104c357600080fd5b506104de60048036038101906104d99190613277565b6114d9565b005b3480156104ec57600080fd5b5061050760048036038101906105029190612acb565b61153b565b6040516105149190612a73565b60405180910390f35b34801561052957600080fd5b50610544600480360381019061053f91906132fa565b6115e2565b60405161055191906129bf565b60405180910390f35b34801561056657600080fd5b50610581600480360381019061057c91906130c5565b611676565b005b60007f80ac58cd000000000000000000000000000000000000000000000000000000007bffffffffffffffffffffffffffffffffffffffffffffffffffffffff1916827bffffffffffffffffffffffffffffffffffffffffffffffffffffffff1916148061064e57507f5b5e139f000000000000000000000000000000000000000000000000000000007bffffffffffffffffffffffffffffffffffffffffffffffffffffffff1916827bffffffffffffffffffffffffffffffffffffffffffffffffffffffff1916145b8061065e575061065d8261176e565b5b9050919050565b60606000805461067490613369565b80601f01602080910402602001604051908101604052809291908181526020018280546106a090613369565b80156106ed5780601f106106c2576101008083540402835291602001916106ed565b820191906000526020600020905b8154815290600101906020018083116106d057829003601f168201915b5050505050905090565b6000610702826117d8565b610741576040517f08c379a00000000000000000000000000000000000000000000000000000000081526004016107389061340d565b60405180910390fd5b6004600083815260200190815260200160002060009054906101000a900473ffffffffffffffffffffffffffffffffffffffff169050919050565b600061078782610cd1565b90508073ffffffffffffffffffffffffffffffffffffffff168373ffffffffffffffffffffffffffffffffffffffff1614156107f8576040517f08c379a00000000000000000000000000000000000000000000000000000000081526004016107ef9061349f565b60405180910390fd5b8073ffffffffffffffffffffffffffffffffffffffff16610817611844565b73ffffffffffffffffffffffffffffffffffffffff161480610846575061084581610840611844565b6115e2565b5b610885576040517f08c379a000000000000000000000000000000000000000000000000000000000815260040161087c90613531565b60405180910390fd5b61088f838361184c565b505050565b60006108a06009611905565b905090565b6108b66108b0611844565b82611913565b6108f5576040517f08c379a00000000000000000000000000000000000000000000000000000000081526004016108ec906135c3565b60405180910390fd5b6109008383836119f1565b505050565b61090d611844565b73ffffffffffffffffffffffffffffffffffffffff1661092b611407565b73ffffffffffffffffffffffffffffffffffffffff1614610981576040517f08c379a00000000000000000000000000000000000000000000000000000000081526004016109789061362f565b60405180910390fd5b6000479050600081116109c9576040517f08c379a00000000000000000000000000000000000000000000000000000000081526004016109c09061369b565b60405180910390fd5b3373ffffffffffffffffffffffffffffffffffffffff166108fc479081150290604051600060405180830381858888f19350505050158015610a0f573d6000803e3d6000fd5b5050565b610a2e838383604051806020016040528060008152506114d9565b505050565b6000600660149054906101000a900460ff16905090565b600080610a578484611c58565b9050600073ffffffffffffffffffffffffffffffffffffffff168173ffffffffffffffffffffffffffffffffffffffff161415610ac9576040517f08c379a0000000000000000000000000000000000000000000000000000000008152600401610ac09061372d565b60405180910390fd5b8073ffffffffffffffffffffffffffffffffffffffff168573ffffffffffffffffffffffffffffffffffffffff1614610b37576040517f08c379a0000000000000000000000000000000000000000000000000000000008152600401610b2e906137bf565b60405180910390fd5b6000600887604051610b49919061381b565b90815260200160405180910390208054905011610b9b576040517f08c379a0000000000000000000000000000000000000000000000000000000008152600401610b929061387e565b60405180910390fd5b6000805b600888604051610baf919061381b565b908152602001604051809103902080549050811015610c7f57600888604051610bd8919061381b565b90815260200160405180910390208181548110610bf857610bf761389e565b5b906000526020600020906003020160000160009054906101000a900473ffffffffffffffffffffffffffffffffffffffff1673ffffffffffffffffffffffffffffffffffffffff168373ffffffffffffffffffffffffffffffffffffffff161415610c6c578180610c6890613906565b9250505b8080610c779061394f565b915050610b9f565b5060008113610cc3576040517f08c379a0000000000000000000000000000000000000000000000000000000008152600401610cba906139e4565b60405180910390fd5b600192505050949350505050565b6000806002600084815260200190815260200160002060009054906101000a900473ffffffffffffffffffffffffffffffffffffffff169050600073ffffffffffffffffffffffffffffffffffffffff168173ffffffffffffffffffffffffffffffffffffffff161415610d7a576040517f08c379a0000000000000000000000000000000000000000000000000000000008152600401610d7190613a76565b60405180910390fd5b80915050919050565b6060600882604051610d95919061381b565b9081526020016040518091039020805480602002602001604051908101604052809291908181526020016000905b82821015610f6f57838290600052602060002090600302016040518060600160405290816000820160009054906101000a900473ffffffffffffffffffffffffffffffffffffffff1673ffffffffffffffffffffffffffffffffffffffff1673ffffffffffffffffffffffffffffffffffffffff168152602001600182018054610e4c90613369565b80601f0160208091040260200160405190810160405280929190818152602001828054610e7890613369565b8015610ec55780601f10610e9a57610100808354040283529160200191610ec5565b820191906000526020600020905b815481529060010190602001808311610ea857829003601f168201915b50505050508152602001600282018054610ede90613369565b80601f0160208091040260200160405190810160405280929190818152602001828054610f0a90613369565b8015610f575780601f10610f2c57610100808354040283529160200191610f57565b820191906000526020600020905b815481529060010190602001808311610f3a57829003601f168201915b50505050508152505081526020019060010190610dc3565b505050509050919050565b60008073ffffffffffffffffffffffffffffffffffffffff168273ffffffffffffffffffffffffffffffffffffffff161415610feb576040517f08c379a0000000000000000000000000000000000000000000000000000000008152600401610fe290613b08565b60405180910390fd5b600360008373ffffffffffffffffffffffffffffffffffffffff1673ffffffffffffffffffffffffffffffffffffffff168152602001908152602001600020549050919050565b61103a611844565b73ffffffffffffffffffffffffffffffffffffffff16611058611407565b73ffffffffffffffffffffffffffffffffffffffff16146110ae576040517f08c379a00000000000000000000000000000000000000000000000000000000081526004016110a59061362f565b60405180910390fd5b6110b86000611c7f565b565b60088280516020810182018051848252602083016020850120818352809550505050505081815481106110ec57600080fd5b9060005260206000209060030201600091509150508060000160009054906101000a900473ffffffffffffffffffffffffffffffffffffffff169080600101805461113690613369565b80601f016020809104026020016040519081016040528092919081815260200182805461116290613369565b80156111af5780601f10611184576101008083540402835291602001916111af565b820191906000526020600020905b81548152906001019060200180831161119257829003601f168201915b5050505050908060020180546111c490613369565b80601f01602080910402602001604051908101604052809291908181526020018280546111f090613369565b801561123d5780601f106112125761010080835404028352916020019161123d565b820191906000526020600020905b81548152906001019060200180831161122057829003601f168201915b5050505050905083565b61124f610a33565b1561128f576040517f08c379a000000000000000000000000000000000000000000000000000000000815260040161128690613b74565b60405180910390fd5b600260075414156112d5576040517f08c379a00000000000000000000000000000000000000000000000000000000081526004016112cc90613be0565b60405180910390fd5b6002600781905550600060405180606001604052803373ffffffffffffffffffffffffffffffffffffffff168152602001848152602001838152509050600883604051611322919061381b565b908152602001604051809103902081908060018154018082558091505060019003906000526020600020906003020160009091909190915060008201518160000160006101000a81548173ffffffffffffffffffffffffffffffffffffffff021916908373ffffffffffffffffffffffffffffffffffffffff16021790555060208201518160010190805190602001906113bd929190612868565b5060408201518160020190805190602001906113da929190612868565b5050506113e76009611d45565b6113fa336113f56009611905565b611d5b565b5060016007819055505050565b6000600660009054906101000a900473ffffffffffffffffffffffffffffffffffffffff16905090565b60606001805461144090613369565b80601f016020809104026020016040519081016040528092919081815260200182805461146c90613369565b80156114b95780601f1061148e576101008083540402835291602001916114b9565b820191906000526020600020905b81548152906001019060200180831161149c57829003601f168201915b5050505050905090565b6114d56114ce611844565b8383611d79565b5050565b6114ea6114e4611844565b83611913565b611529576040517f08c379a0000000000000000000000000000000000000000000000000000000008152600401611520906135c3565b60405180910390fd5b61153584848484611ee6565b50505050565b6060611546826117d8565b611585576040517f08c379a000000000000000000000000000000000000000000000000000000000815260040161157c90613c72565b60405180910390fd5b600061158f611f42565b905060008151116115af57604051806020016040528060008152506115da565b806115b984611f59565b6040516020016115ca929190613c92565b6040516020818303038152906040525b915050919050565b6000600560008473ffffffffffffffffffffffffffffffffffffffff1673ffffffffffffffffffffffffffffffffffffffff16815260200190815260200160002060008373ffffffffffffffffffffffffffffffffffffffff1673ffffffffffffffffffffffffffffffffffffffff16815260200190815260200160002060009054906101000a900460ff16905092915050565b61167e611844565b73ffffffffffffffffffffffffffffffffffffffff1661169c611407565b73ffffffffffffffffffffffffffffffffffffffff16146116f2576040517f08c379a00000000000000000000000000000000000000000000000000000000081526004016116e99061362f565b60405180910390fd5b600073ffffffffffffffffffffffffffffffffffffffff168173ffffffffffffffffffffffffffffffffffffffff161415611762576040517f08c379a000000000000000000000000000000000000000000000000000000000815260040161175990613d28565b60405180910390fd5b61176b81611c7f565b50565b60007f01ffc9a7000000000000000000000000000000000000000000000000000000007bffffffffffffffffffffffffffffffffffffffffffffffffffffffff1916827bffffffffffffffffffffffffffffffffffffffffffffffffffffffff1916149050919050565b60008073ffffffffffffffffffffffffffffffffffffffff166002600084815260200190815260200160002060009054906101000a900473ffffffffffffffffffffffffffffffffffffffff1673ffffffffffffffffffffffffffffffffffffffff1614159050919050565b600033905090565b816004600083815260200190815260200160002060006101000a81548173ffffffffffffffffffffffffffffffffffffffff021916908373ffffffffffffffffffffffffffffffffffffffff160217905550808273ffffffffffffffffffffffffffffffffffffffff166118bf83610cd1565b73ffffffffffffffffffffffffffffffffffffffff167f8c5be1e5ebec7d5bd14f71427d1e84f3dd0314c0f7b2291e5b200ac8c7c3b92560405160405180910390a45050565b600081600001549050919050565b600061191e826117d8565b61195d576040517f08c379a000000000000000000000000000000000000000000000000000000000815260040161195490613dba565b60405180910390fd5b600061196883610cd1565b90508073ffffffffffffffffffffffffffffffffffffffff168473ffffffffffffffffffffffffffffffffffffffff1614806119d757508373ffffffffffffffffffffffffffffffffffffffff166119bf846106f7565b73ffffffffffffffffffffffffffffffffffffffff16145b806119e857506119e781856115e2565b5b91505092915050565b8273ffffffffffffffffffffffffffffffffffffffff16611a1182610cd1565b73ffffffffffffffffffffffffffffffffffffffff1614611a67576040517f08c379a0000000000000000000000000000000000000000000000000000000008152600401611a5e90613e4c565b60405180910390fd5b600073ffffffffffffffffffffffffffffffffffffffff168273ffffffffffffffffffffffffffffffffffffffff161415611ad7576040517f08c379a0000000000000000000000000000000000000000000000000000000008152600401611ace90613ede565b60405180910390fd5b611ae28383836120ba565b611aed60008261184c565b6001600360008573ffffffffffffffffffffffffffffffffffffffff1673ffffffffffffffffffffffffffffffffffffffff1681526020019081526020016000206000828254611b3d9190613efe565b925050819055506001600360008473ffffffffffffffffffffffffffffffffffffffff1673ffffffffffffffffffffffffffffffffffffffff1681526020019081526020016000206000828254611b949190613f32565b92505081905550816002600083815260200190815260200160002060006101000a81548173ffffffffffffffffffffffffffffffffffffffff021916908373ffffffffffffffffffffffffffffffffffffffff160217905550808273ffffffffffffffffffffffffffffffffffffffff168473ffffffffffffffffffffffffffffffffffffffff167fddf252ad1be2c89b69c2b068fc378daa952ba7f163c4a11628f55a4df523b3ef60405160405180910390a4611c538383836120bf565b505050565b6000806000611c6785856120c4565b91509150611c7481612147565b819250505092915050565b6000600660009054906101000a900473ffffffffffffffffffffffffffffffffffffffff16905081600660006101000a81548173ffffffffffffffffffffffffffffffffffffffff021916908373ffffffffffffffffffffffffffffffffffffffff1602179055508173ffffffffffffffffffffffffffffffffffffffff168173ffffffffffffffffffffffffffffffffffffffff167f8be0079c531659141344cd1fd0a4f28419497f9722a3daafe3b4186f6b6457e060405160405180910390a35050565b6001816000016000828254019250508190555050565b611d7582826040518060200160405280600081525061231c565b5050565b8173ffffffffffffffffffffffffffffffffffffffff168373ffffffffffffffffffffffffffffffffffffffff161415611de8576040517f08c379a0000000000000000000000000000000000000000000000000000000008152600401611ddf90613fd4565b60405180910390fd5b80600560008573ffffffffffffffffffffffffffffffffffffffff1673ffffffffffffffffffffffffffffffffffffffff16815260200190815260200160002060008473ffffffffffffffffffffffffffffffffffffffff1673ffffffffffffffffffffffffffffffffffffffff16815260200190815260200160002060006101000a81548160ff0219169083151502179055508173ffffffffffffffffffffffffffffffffffffffff168373ffffffffffffffffffffffffffffffffffffffff167f17307eab39ab6107e8899845ad3d59bd9653f200f220920489ca2b5937696c3183604051611ed991906129bf565b60405180910390a3505050565b611ef18484846119f1565b611efd84848484612377565b611f3c576040517f08c379a0000000000000000000000000000000000000000000000000000000008152600401611f3390614066565b60405180910390fd5b50505050565b606060405180602001604052806000815250905090565b60606000821415611fa1576040518060400160405280600181526020017f300000000000000000000000000000000000000000000000000000000000000081525090506120b5565b600082905060005b60008214611fd3578080611fbc9061394f565b915050600a82611fcc91906140b5565b9150611fa9565b60008167ffffffffffffffff811115611fef57611fee612c47565b5b6040519080825280601f01601f1916602001820160405280156120215781602001600182028036833780820191505090505b5090505b600085146120ae5760018261203a9190613efe565b9150600a8561204991906140e6565b60306120559190613f32565b60f81b81838151811061206b5761206a61389e565b5b60200101907effffffffffffffffffffffffffffffffffffffffffffffffffffffffffffff1916908160001a905350600a856120a791906140b5565b9450612025565b8093505050505b919050565b505050565b505050565b6000806041835114156121065760008060006020860151925060408601519150606086015160001a90506120fa878285856124ff565b94509450505050612140565b60408351141561213757600080602085015191506040850151905061212c86838361260c565b935093505050612140565b60006002915091505b9250929050565b6000600481111561215b5761215a614117565b5b81600481111561216e5761216d614117565b5b141561217957612319565b6001600481111561218d5761218c614117565b5b8160048111156121a05761219f614117565b5b14156121e1576040517f08c379a00000000000000000000000000000000000000000000000000000000081526004016121d890614192565b60405180910390fd5b600260048111156121f5576121f4614117565b5b81600481111561220857612207614117565b5b1415612249576040517f08c379a0000000000000000000000000000000000000000000000000000000008152600401612240906141fe565b60405180910390fd5b6003600481111561225d5761225c614117565b5b8160048111156122705761226f614117565b5b14156122b1576040517f08c379a00000000000000000000000000000000000000000000000000000000081526004016122a890614290565b60405180910390fd5b6004808111156122c4576122c3614117565b5b8160048111156122d7576122d6614117565b5b1415612318576040517f08c379a000000000000000000000000000000000000000000000000000000000815260040161230f90614322565b60405180910390fd5b5b50565b612326838361266b565b6123336000848484612377565b612372576040517f08c379a000000000000000000000000000000000000000000000000000000000815260040161236990614066565b60405180910390fd5b505050565b60006123988473ffffffffffffffffffffffffffffffffffffffff16612845565b156124f2578373ffffffffffffffffffffffffffffffffffffffff1663150b7a026123c1611844565b8786866040518563ffffffff1660e01b81526004016123e39493929190614397565b6020604051808303816000875af192505050801561241f57506040513d601f19601f8201168201806040525081019061241c91906143f8565b60015b6124a2573d806000811461244f576040519150601f19603f3d011682016040523d82523d6000602084013e612454565b606091505b5060008151141561249a576040517f08c379a000000000000000000000000000000000000000000000000000000000815260040161249190614066565b60405180910390fd5b805181602001fd5b63150b7a0260e01b7bffffffffffffffffffffffffffffffffffffffffffffffffffffffff1916817bffffffffffffffffffffffffffffffffffffffffffffffffffffffff1916149150506124f7565b600190505b949350505050565b6000807f7fffffffffffffffffffffffffffffff5d576e7357a4501ddfe92f46681b20a08360001c111561253a576000600391509150612603565b601b8560ff16141580156125525750601c8560ff1614155b15612564576000600491509150612603565b6000600187878787604051600081526020016040526040516125899493929190614450565b6020604051602081039080840390855afa1580156125ab573d6000803e3d6000fd5b505050602060405103519050600073ffffffffffffffffffffffffffffffffffffffff168173ffffffffffffffffffffffffffffffffffffffff1614156125fa57600060019250925050612603565b80600092509250505b94509492505050565b60008060007f7fffffffffffffffffffffffffffffffffffffffffffffffffffffffffffffff60001b841690506000601b60ff8660001c901c61264f9190613f32565b905061265d878288856124ff565b935093505050935093915050565b600073ffffffffffffffffffffffffffffffffffffffff168273ffffffffffffffffffffffffffffffffffffffff1614156126db576040517f08c379a00000000000000000000000000000000000000000000000000000000081526004016126d2906144e1565b60405180910390fd5b6126e4816117d8565b15612724576040517f08c379a000000000000000000000000000000000000000000000000000000000815260040161271b9061454d565b60405180910390fd5b612730600083836120ba565b6001600360008473ffffffffffffffffffffffffffffffffffffffff1673ffffffffffffffffffffffffffffffffffffffff16815260200190815260200160002060008282546127809190613f32565b92505081905550816002600083815260200190815260200160002060006101000a81548173ffffffffffffffffffffffffffffffffffffffff021916908373ffffffffffffffffffffffffffffffffffffffff160217905550808273ffffffffffffffffffffffffffffffffffffffff16600073ffffffffffffffffffffffffffffffffffffffff167fddf252ad1be2c89b69c2b068fc378daa952ba7f163c4a11628f55a4df523b3ef60405160405180910390a4612841600083836120bf565b5050565b6000808273ffffffffffffffffffffffffffffffffffffffff163b119050919050565b82805461287490613369565b90600052602060002090601f01602090048101928261289657600085556128dd565b82601f106128af57805160ff19168380011785556128dd565b828001600101855582156128dd579182015b828111156128dc5782518255916020019190600101906128c1565b5b5090506128ea91906128ee565b5090565b5b808211156129075760008160009055506001016128ef565b5090565b6000604051905090565b600080fd5b600080fd5b60007fffffffff0000000000000000000000000000000000000000000000000000000082169050919050565b6129548161291f565b811461295f57600080fd5b50565b6000813590506129718161294b565b92915050565b60006020828403121561298d5761298c612915565b5b600061299b84828501612962565b91505092915050565b60008115159050919050565b6129b9816129a4565b82525050565b60006020820190506129d460008301846129b0565b92915050565b600081519050919050565b600082825260208201905092915050565b60005b83811015612a145780820151818401526020810190506129f9565b83811115612a23576000848401525b50505050565b6000601f19601f8301169050919050565b6000612a45826129da565b612a4f81856129e5565b9350612a5f8185602086016129f6565b612a6881612a29565b840191505092915050565b60006020820190508181036000830152612a8d8184612a3a565b905092915050565b6000819050919050565b612aa881612a95565b8114612ab357600080fd5b50565b600081359050612ac581612a9f565b92915050565b600060208284031215612ae157612ae0612915565b5b6000612aef84828501612ab6565b91505092915050565b600073ffffffffffffffffffffffffffffffffffffffff82169050919050565b6000612b2382612af8565b9050919050565b612b3381612b18565b82525050565b6000602082019050612b4e6000830184612b2a565b92915050565b612b5d81612b18565b8114612b6857600080fd5b50565b600081359050612b7a81612b54565b92915050565b60008060408385031215612b9757612b96612915565b5b6000612ba585828601612b6b565b9250506020612bb685828601612ab6565b9150509250929050565b612bc981612a95565b82525050565b6000602082019050612be46000830184612bc0565b92915050565b600080600060608486031215612c0357612c02612915565b5b6000612c1186828701612b6b565b9350506020612c2286828701612b6b565b9250506040612c3386828701612ab6565b9150509250925092565b600080fd5b600080fd5b7f4e487b7100000000000000000000000000000000000000000000000000000000600052604160045260246000fd5b612c7f82612a29565b810181811067ffffffffffffffff82111715612c9e57612c9d612c47565b5b80604052505050565b6000612cb161290b565b9050612cbd8282612c76565b919050565b600067ffffffffffffffff821115612cdd57612cdc612c47565b5b612ce682612a29565b9050602081019050919050565b82818337600083830152505050565b6000612d15612d1084612cc2565b612ca7565b905082815260208101848484011115612d3157612d30612c42565b5b612d3c848285612cf3565b509392505050565b600082601f830112612d5957612d58612c3d565b5b8135612d69848260208601612d02565b91505092915050565b6000819050919050565b612d8581612d72565b8114612d9057600080fd5b50565b600081359050612da281612d7c565b92915050565b600067ffffffffffffffff821115612dc357612dc2612c47565b5b612dcc82612a29565b9050602081019050919050565b6000612dec612de784612da8565b612ca7565b905082815260208101848484011115612e0857612e07612c42565b5b612e13848285612cf3565b509392505050565b600082601f830112612e3057612e2f612c3d565b5b8135612e40848260208601612dd9565b91505092915050565b60008060008060808587031215612e6357612e62612915565b5b600085013567ffffffffffffffff811115612e8157612e8061291a565b5b612e8d87828801612d44565b9450506020612e9e87828801612b6b565b9350506040612eaf87828801612d93565b925050606085013567ffffffffffffffff811115612ed057612ecf61291a565b5b612edc87828801612e1b565b91505092959194509250565b600060208284031215612efe57612efd612915565b5b600082013567ffffffffffffffff811115612f1c57612f1b61291a565b5b612f2884828501612d44565b91505092915050565b600081519050919050565b600082825260208201905092915050565b6000819050602082019050919050565b612f6681612b18565b82525050565b600082825260208201905092915050565b6000612f88826129da565b612f928185612f6c565b9350612fa28185602086016129f6565b612fab81612a29565b840191505092915050565b6000606083016000830151612fce6000860182612f5d565b5060208301518482036020860152612fe68282612f7d565b915050604083015184820360408601526130008282612f7d565b9150508091505092915050565b60006130198383612fb6565b905092915050565b6000602082019050919050565b600061303982612f31565b6130438185612f3c565b93508360208202850161305585612f4d565b8060005b858110156130915784840389528151613072858261300d565b945061307d83613021565b925060208a01995050600181019050613059565b50829750879550505050505092915050565b600060208201905081810360008301526130bd818461302e565b905092915050565b6000602082840312156130db576130da612915565b5b60006130e984828501612b6b565b91505092915050565b6000806040838503121561310957613108612915565b5b600083013567ffffffffffffffff8111156131275761312661291a565b5b61313385828601612d44565b925050602061314485828601612ab6565b9150509250929050565b60006060820190506131636000830186612b2a565b81810360208301526131758185612a3a565b905081810360408301526131898184612a3a565b9050949350505050565b600080604083850312156131aa576131a9612915565b5b600083013567ffffffffffffffff8111156131c8576131c761291a565b5b6131d485828601612d44565b925050602083013567ffffffffffffffff8111156131f5576131f461291a565b5b61320185828601612d44565b9150509250929050565b613214816129a4565b811461321f57600080fd5b50565b6000813590506132318161320b565b92915050565b6000806040838503121561324e5761324d612915565b5b600061325c85828601612b6b565b925050602061326d85828601613222565b9150509250929050565b6000806000806080858703121561329157613290612915565b5b600061329f87828801612b6b565b94505060206132b087828801612b6b565b93505060406132c187828801612ab6565b925050606085013567ffffffffffffffff8111156132e2576132e161291a565b5b6132ee87828801612e1b565b91505092959194509250565b6000806040838503121561331157613310612915565b5b600061331f85828601612b6b565b925050602061333085828601612b6b565b9150509250929050565b7f4e487b7100000000000000000000000000000000000000000000000000000000600052602260045260246000fd5b6000600282049050600182168061338157607f821691505b602082108114156133955761339461333a565b5b50919050565b7f4552433732313a20617070726f76656420717565727920666f72206e6f6e657860008201527f697374656e7420746f6b656e0000000000000000000000000000000000000000602082015250565b60006133f7602c836129e5565b91506134028261339b565b604082019050919050565b60006020820190508181036000830152613426816133ea565b9050919050565b7f4552433732313a20617070726f76616c20746f2063757272656e74206f776e6560008201527f7200000000000000000000000000000000000000000000000000000000000000602082015250565b60006134896021836129e5565b91506134948261342d565b604082019050919050565b600060208201905081810360008301526134b88161347c565b9050919050565b7f4552433732313a20617070726f76652063616c6c6572206973206e6f74206f7760008201527f6e6572206e6f7220617070726f76656420666f7220616c6c0000000000000000602082015250565b600061351b6038836129e5565b9150613526826134bf565b604082019050919050565b6000602082019050818103600083015261354a8161350e565b9050919050565b7f4552433732313a207472616e736665722063616c6c6572206973206e6f74206f60008201527f776e6572206e6f7220617070726f766564000000000000000000000000000000602082015250565b60006135ad6031836129e5565b91506135b882613551565b604082019050919050565b600060208201905081810360008301526135dc816135a0565b9050919050565b7f4f776e61626c653a2063616c6c6572206973206e6f7420746865206f776e6572600082015250565b60006136196020836129e5565b9150613624826135e3565b602082019050919050565b600060208201905081810360008301526136488161360c565b9050919050565b7f4e6f206574686572206c65667420746f20776974686472617700000000000000600082015250565b60006136856019836129e5565b91506136908261364f565b602082019050919050565b600060208201905081810360008301526136b481613678565b9050919050565b7f636f756c64206e6f74207265736f6c7665207369676e6572206164647265737360008201527f2066726f6d20676976656e2064696765737420616e64207369676e6174757265602082015250565b60006137176040836129e5565b9150613722826136bb565b604082019050919050565b600060208201905081810360008301526137468161370a565b9050919050565b7f676976656e207369676e65722061646472657373206973206e6f74207369676e60008201527f6572206f66206469676573740000000000000000000000000000000000000000602082015250565b60006137a9602c836129e5565b91506137b48261374d565b604082019050919050565b600060208201905081810360008301526137d88161379c565b9050919050565b600081905092915050565b60006137f5826129da565b6137ff81856137df565b935061380f8185602086016129f6565b80840191505092915050565b600061382782846137ea565b915081905092915050565b7f696d616765207265666572656e636520646964206e6f74207369676e00000000600082015250565b6000613868601c836129e5565b915061387382613832565b602082019050919050565b600060208201905081810360008301526138978161385b565b9050919050565b7f4e487b7100000000000000000000000000000000000000000000000000000000600052603260045260246000fd5b7f4e487b7100000000000000000000000000000000000000000000000000000000600052601160045260246000fd5b6000819050919050565b6000613911826138fc565b91507f7fffffffffffffffffffffffffffffffffffffffffffffffffffffffffffffff821415613944576139436138cd565b5b600182019050919050565b600061395a82612a95565b91507fffffffffffffffffffffffffffffffffffffffffffffffffffffffffffffffff82141561398d5761398c6138cd565b5b600182019050919050565b7f696d61676520766572696669636174696f6e206661696c656400000000000000600082015250565b60006139ce6019836129e5565b91506139d982613998565b602082019050919050565b600060208201905081810360008301526139fd816139c1565b9050919050565b7f4552433732313a206f776e657220717565727920666f72206e6f6e657869737460008201527f656e7420746f6b656e0000000000000000000000000000000000000000000000602082015250565b6000613a606029836129e5565b9150613a6b82613a04565b604082019050919050565b60006020820190508181036000830152613a8f81613a53565b9050919050565b7f4552433732313a2062616c616e636520717565727920666f7220746865207a6560008201527f726f206164647265737300000000000000000000000000000000000000000000602082015250565b6000613af2602a836129e5565b9150613afd82613a96565b604082019050919050565b60006020820190508181036000830152613b2181613ae5565b9050919050565b7f5061757361626c653a2070617573656400000000000000000000000000000000600082015250565b6000613b5e6010836129e5565b9150613b6982613b28565b602082019050919050565b60006020820190508181036000830152613b8d81613b51565b9050919050565b7f5265656e7472616e637947756172643a207265656e7472616e742063616c6c00600082015250565b6000613bca601f836129e5565b9150613bd582613b94565b602082019050919050565b60006020820190508181036000830152613bf981613bbd565b9050919050565b7f4552433732314d657461646174613a2055524920717565727920666f72206e6f60008201527f6e6578697374656e7420746f6b656e0000000000000000000000000000000000602082015250565b6000613c5c602f836129e5565b9150613c6782613c00565b604082019050919050565b60006020820190508181036000830152613c8b81613c4f565b9050919050565b6000613c9e82856137ea565b9150613caa82846137ea565b91508190509392505050565b7f4f776e61626c653a206e6577206f776e657220697320746865207a65726f206160008201527f6464726573730000000000000000000000000000000000000000000000000000602082015250565b6000613d126026836129e5565b9150613d1d82613cb6565b604082019050919050565b60006020820190508181036000830152613d4181613d05565b9050919050565b7f4552433732313a206f70657261746f7220717565727920666f72206e6f6e657860008201527f697374656e7420746f6b656e0000000000000000000000000000000000000000602082015250565b6000613da4602c836129e5565b9150613daf82613d48565b604082019050919050565b60006020820190508181036000830152613dd381613d97565b9050919050565b7f4552433732313a207472616e736665722066726f6d20696e636f72726563742060008201527f6f776e6572000000000000000000000000000000000000000000000000000000602082015250565b6000613e366025836129e5565b9150613e4182613dda565b604082019050919050565b60006020820190508181036000830152613e6581613e29565b9050919050565b7f4552433732313a207472616e7366657220746f20746865207a65726f2061646460008201527f7265737300000000000000000000000000000000000000000000000000000000602082015250565b6000613ec86024836129e5565b9150613ed382613e6c565b604082019050919050565b60006020820190508181036000830152613ef781613ebb565b9050919050565b6000613f0982612a95565b9150613f1483612a95565b925082821015613f2757613f266138cd565b5b828203905092915050565b6000613f3d82612a95565b9150613f4883612a95565b9250827fffffffffffffffffffffffffffffffffffffffffffffffffffffffffffffffff03821115613f7d57613f7c6138cd565b5b828201905092915050565b7f4552433732313a20617070726f766520746f2063616c6c657200000000000000600082015250565b6000613fbe6019836129e5565b9150613fc982613f88565b602082019050919050565b60006020820190508181036000830152613fed81613fb1565b9050919050565b7f4552433732313a207472616e7366657220746f206e6f6e20455243373231526560008201527f63656976657220696d706c656d656e7465720000000000000000000000000000602082015250565b60006140506032836129e5565b915061405b82613ff4565b604082019050919050565b6000602082019050818103600083015261407f81614043565b9050919050565b7f4e487b7100000000000000000000000000000000000000000000000000000000600052601260045260246000fd5b60006140c082612a95565b91506140cb83612a95565b9250826140db576140da614086565b5b828204905092915050565b60006140f182612a95565b91506140fc83612a95565b92508261410c5761410b614086565b5b828206905092915050565b7f4e487b7100000000000000000000000000000000000000000000000000000000600052602160045260246000fd5b7f45434453413a20696e76616c6964207369676e61747572650000000000000000600082015250565b600061417c6018836129e5565b915061418782614146565b602082019050919050565b600060208201905081810360008301526141ab8161416f565b9050919050565b7f45434453413a20696e76616c6964207369676e6174757265206c656e67746800600082015250565b60006141e8601f836129e5565b91506141f3826141b2565b602082019050919050565b60006020820190508181036000830152614217816141db565b9050919050565b7f45434453413a20696e76616c6964207369676e6174757265202773272076616c60008201527f7565000000000000000000000000000000000000000000000000000000000000602082015250565b600061427a6022836129e5565b91506142858261421e565b604082019050919050565b600060208201905081810360008301526142a98161426d565b9050919050565b7f45434453413a20696e76616c6964207369676e6174757265202776272076616c60008201527f7565000000000000000000000000000000000000000000000000000000000000602082015250565b600061430c6022836129e5565b9150614317826142b0565b604082019050919050565b6000602082019050818103600083015261433b816142ff565b9050919050565b600081519050919050565b600082825260208201905092915050565b600061436982614342565b614373818561434d565b93506143838185602086016129f6565b61438c81612a29565b840191505092915050565b60006080820190506143ac6000830187612b2a565b6143b96020830186612b2a565b6143c66040830185612bc0565b81810360608301526143d8818461435e565b905095945050505050565b6000815190506143f28161294b565b92915050565b60006020828403121561440e5761440d612915565b5b600061441c848285016143e3565b91505092915050565b61442e81612d72565b82525050565b600060ff82169050919050565b61444a81614434565b82525050565b60006080820190506144656000830187614425565b6144726020830186614441565b61447f6040830185614425565b61448c6060830184614425565b95945050505050565b7f4552433732313a206d696e7420746f20746865207a65726f2061646472657373600082015250565b60006144cb6020836129e5565b91506144d682614495565b602082019050919050565b600060208201905081810360008301526144fa816144be565b9050919050565b7f4552433732313a20746f6b656e20616c7265616479206d696e74656400000000600082015250565b6000614537601c836129e5565b915061454282614501565b602082019050919050565b600060208201905081810360008301526145668161452a565b905091905056fea2646970667358221220d048021b6d09eb5639e8c0326b41ebe8b18bb12dbccafacc9d9c71a293893a2664736f6c634300080c0033",
  "linkReferences": {},
  "deployedLinkReferences": {}
}